{
  "contractName": "LivingProof",
  "abi": [
    {
      "constant": true,
      "inputs": [
        {
          "internalType": "uint256",
          "name": "",
          "type": "uint256"
        }
      ],
      "name": "proofIndex",
      "outputs": [
        {
          "internalType": "address",
          "name": "",
          "type": "address"
        }
      ],
      "payable": false,
      "stateMutability": "view",
      "type": "function"
    },
    {
      "constant": true,
      "inputs": [
        {
          "internalType": "address",
          "name": "",
          "type": "address"
        }
      ],
      "name": "proofs",
      "outputs": [
        {
          "internalType": "uint256",
          "name": "proofType",
          "type": "uint256"
        },
        {
          "internalType": "uint256",
          "name": "interval",
          "type": "uint256"
        },
        {
          "internalType": "uint256",
          "name": "amount",
          "type": "uint256"
        },
        {
          "internalType": "uint256",
          "name": "status",
          "type": "uint256"
        },
        {
          "internalType": "uint256",
          "name": "index",
          "type": "uint256"
        },
        {
          "internalType": "uint256",
          "name": "updated",
          "type": "uint256"
        },
        {
          "internalType": "address payable",
          "name": "recipient",
          "type": "address"
        },
        {
          "internalType": "bytes32",
          "name": "message",
          "type": "bytes32"
        }
      ],
      "payable": false,
      "stateMutability": "view",
      "type": "function"
    },
    {
      "constant": true,
      "inputs": [
        {
          "internalType": "address",
          "name": "proofAddress",
          "type": "address"
        }
      ],
      "name": "isProof",
      "outputs": [
        {
          "internalType": "bool",
          "name": "",
          "type": "bool"
        }
      ],
      "payable": false,
      "stateMutability": "view",
      "type": "function"
    },
    {
      "constant": true,
      "inputs": [
        {
          "internalType": "address",
          "name": "proofAddress",
          "type": "address"
        }
      ],
      "name": "getProof",
      "outputs": [
        {
          "internalType": "uint256",
          "name": "proofType",
          "type": "uint256"
        },
        {
          "internalType": "uint256",
          "name": "interval",
          "type": "uint256"
        },
        {
          "internalType": "uint256",
          "name": "amount",
          "type": "uint256"
        },
        {
          "internalType": "uint256",
          "name": "status",
          "type": "uint256"
        },
        {
          "internalType": "uint256",
          "name": "index",
          "type": "uint256"
        },
        {
          "internalType": "uint256",
          "name": "updated",
          "type": "uint256"
        },
        {
          "internalType": "address",
          "name": "recipient",
          "type": "address"
        },
        {
          "internalType": "bytes32",
          "name": "message",
          "type": "bytes32"
        }
      ],
      "payable": false,
      "stateMutability": "view",
      "type": "function"
    },
    {
      "constant": false,
      "inputs": [
        {
          "internalType": "uint256",
          "name": "proofType",
          "type": "uint256"
        },
        {
          "internalType": "uint256",
          "name": "interval",
          "type": "uint256"
        },
        {
          "internalType": "uint256",
          "name": "status",
          "type": "uint256"
        }
      ],
      "name": "newProof",
      "outputs": [
        {
          "internalType": "uint256",
          "name": "index",
          "type": "uint256"
        },
        {
          "internalType": "address",
          "name": "proofAddress",
          "type": "address"
        }
      ],
      "payable": true,
      "stateMutability": "payable",
      "type": "function"
    },
    {
      "constant": false,
      "inputs": [
        {
          "internalType": "address",
          "name": "proofToKill",
          "type": "address"
        }
      ],
      "name": "killProof",
      "outputs": [
        {
          "internalType": "bool",
          "name": "",
          "type": "bool"
        }
      ],
      "payable": false,
      "stateMutability": "nonpayable",
      "type": "function"
    },
    {
      "constant": false,
      "inputs": [
        {
          "internalType": "address",
          "name": "proofToKill",
          "type": "address"
        }
      ],
      "name": "killProofAnyone",
      "outputs": [
        {
          "internalType": "bool",
          "name": "",
          "type": "bool"
        }
      ],
      "payable": false,
      "stateMutability": "nonpayable",
      "type": "function"
    },
    {
      "constant": false,
      "inputs": [
        {
          "internalType": "address payable",
          "name": "proofToKill",
          "type": "address"
        }
      ],
      "name": "killPinata",
      "outputs": [
        {
          "internalType": "bool",
          "name": "",
          "type": "bool"
        }
      ],
      "payable": false,
      "stateMutability": "nonpayable",
      "type": "function"
    },
    {
      "constant": false,
      "inputs": [
        {
          "internalType": "address payable",
          "name": "proofToKill",
          "type": "address"
        }
      ],
      "name": "killPinataAnyone",
      "outputs": [
        {
          "internalType": "bool",
          "name": "",
          "type": "bool"
        }
      ],
      "payable": false,
      "stateMutability": "nonpayable",
      "type": "function"
    },
    {
      "constant": false,
      "inputs": [
        {
          "internalType": "address",
          "name": "proofToUpdate",
          "type": "address"
        },
        {
          "internalType": "uint256",
          "name": "interval",
          "type": "uint256"
        },
        {
          "internalType": "bytes32",
          "name": "message",
          "type": "bytes32"
        }
      ],
      "name": "updateProof",
      "outputs": [
        {
          "internalType": "bool",
          "name": "",
          "type": "bool"
        }
      ],
      "payable": false,
      "stateMutability": "nonpayable",
      "type": "function"
    },
    {
      "constant": false,
      "inputs": [
        {
          "internalType": "address",
          "name": "proofToUpdate",
          "type": "address"
        },
        {
          "internalType": "uint256",
          "name": "interval",
          "type": "uint256"
        },
        {
          "internalType": "bytes32",
          "name": "message",
          "type": "bytes32"
        }
      ],
      "name": "updatePinata",
      "outputs": [
        {
          "internalType": "bool",
          "name": "",
          "type": "bool"
        }
      ],
      "payable": true,
      "stateMutability": "payable",
      "type": "function"
    }
  ],
  "bytecode": "0x608060405234801561001057600080fd5b506115c6806100206000396000f3fe60806040526004361061009c5760003560e01c8063615056f111610064578063615056f11461032d5780636fbe407a14610396578063a795f9e214610406578063dcddf340146104c8578063ec7bfe1f14610551578063f583dc0b146105ba5761009c565b80631a9a2518146100a15780631b59b6f81461010a5780632ecf3fd914610173578063324a7289146101f05780633eea79d11461026b575b600080fd5b3480156100ad57600080fd5b506100f0600480360360208110156100c457600080fd5b81019080803573ffffffffffffffffffffffffffffffffffffffff169060200190929190505050610623565b604051808215151515815260200191505060405180910390f35b34801561011657600080fd5b506101596004803603602081101561012d57600080fd5b81019080803573ffffffffffffffffffffffffffffffffffffffff16906020019092919050505061076b565b604051808215151515815260200191505060405180910390f35b34801561017f57600080fd5b506101d66004803603606081101561019657600080fd5b81019080803573ffffffffffffffffffffffffffffffffffffffff1690602001909291908035906020019092919080359060200190929190505050610832565b604051808215151515815260200191505060405180910390f35b3480156101fc57600080fd5b506102296004803603602081101561021357600080fd5b810190808035906020019092919050505061095b565b604051808273ffffffffffffffffffffffffffffffffffffffff1673ffffffffffffffffffffffffffffffffffffffff16815260200191505060405180910390f35b34801561027757600080fd5b506102ba6004803603602081101561028e57600080fd5b81019080803573ffffffffffffffffffffffffffffffffffffffff169060200190929190505050610997565b604051808981526020018881526020018781526020018681526020018581526020018481526020018373ffffffffffffffffffffffffffffffffffffffff1673ffffffffffffffffffffffffffffffffffffffff1681526020018281526020019850505050505050505060405180910390f35b34801561033957600080fd5b5061037c6004803603602081101561035057600080fd5b81019080803573ffffffffffffffffffffffffffffffffffffffff169060200190929190505050610c18565b604051808215151515815260200191505060405180910390f35b6103ec600480360360608110156103ac57600080fd5b81019080803573ffffffffffffffffffffffffffffffffffffffff1690602001909291908035906020019092919080359060200190929190505050610dd7565b604051808215151515815260200191505060405180910390f35b34801561041257600080fd5b506104556004803603602081101561042957600080fd5b81019080803573ffffffffffffffffffffffffffffffffffffffff169060200190929190505050610f89565b604051808981526020018881526020018781526020018681526020018581526020018481526020018373ffffffffffffffffffffffffffffffffffffffff1673ffffffffffffffffffffffffffffffffffffffff1681526020018281526020019850505050505050505060405180910390f35b610508600480360360608110156104de57600080fd5b81019080803590602001909291908035906020019092919080359060200190929190505050610ff1565b604051808381526020018273ffffffffffffffffffffffffffffffffffffffff1673ffffffffffffffffffffffffffffffffffffffff1681526020019250505060405180910390f35b34801561055d57600080fd5b506105a06004803603602081101561057457600080fd5b81019080803573ffffffffffffffffffffffffffffffffffffffff169060200190929190505050611229565b604051808215151515815260200191505060405180910390f35b3480156105c657600080fd5b50610609600480360360208110156105dd57600080fd5b81019080803573ffffffffffffffffffffffffffffffffffffffff1690602001909291905050506114a7565b604051808215151515815260200191505060405180910390f35b600061062e8261076b565b61063757600080fd5b60008060008473ffffffffffffffffffffffffffffffffffffffff1673ffffffffffffffffffffffffffffffffffffffff168152602001908152602001600020600001541461068557600080fd5b436000808473ffffffffffffffffffffffffffffffffffffffff1673ffffffffffffffffffffffffffffffffffffffff168152602001908152602001600020600101546000808573ffffffffffffffffffffffffffffffffffffffff1673ffffffffffffffffffffffffffffffffffffffff168152602001908152602001600020600501540110156107615760016000808473ffffffffffffffffffffffffffffffffffffffff1673ffffffffffffffffffffffffffffffffffffffff1681526020019081526020016000206003018190555060019050610766565b600090505b919050565b6000806001805490501415610783576000905061082d565b8173ffffffffffffffffffffffffffffffffffffffff1660016000808573ffffffffffffffffffffffffffffffffffffffff1673ffffffffffffffffffffffffffffffffffffffff16815260200190815260200160002060040154815481106107e857fe5b9060005260206000200160009054906101000a900473ffffffffffffffffffffffffffffffffffffffff1673ffffffffffffffffffffffffffffffffffffffff161490505b919050565b60003373ffffffffffffffffffffffffffffffffffffffff168473ffffffffffffffffffffffffffffffffffffffff161461086c57600080fd5b6108758461076b565b61087e57600080fd5b826000808673ffffffffffffffffffffffffffffffffffffffff1673ffffffffffffffffffffffffffffffffffffffff16815260200190815260200160002060010181905550816000808673ffffffffffffffffffffffffffffffffffffffff1673ffffffffffffffffffffffffffffffffffffffff16815260200190815260200160002060070181905550436000808673ffffffffffffffffffffffffffffffffffffffff1673ffffffffffffffffffffffffffffffffffffffff16815260200190815260200160002060050181905550600190509392505050565b6001818154811061096857fe5b906000526020600020016000915054906101000a900473ffffffffffffffffffffffffffffffffffffffff1681565b6000806000806000806000806109ac8961076b565b6109b557600080fd5b6000808a73ffffffffffffffffffffffffffffffffffffffff1673ffffffffffffffffffffffffffffffffffffffff1681526020019081526020016000206000015497506000808a73ffffffffffffffffffffffffffffffffffffffff1673ffffffffffffffffffffffffffffffffffffffff1681526020019081526020016000206001015496506000808a73ffffffffffffffffffffffffffffffffffffffff1673ffffffffffffffffffffffffffffffffffffffff1681526020019081526020016000206002015495506000808a73ffffffffffffffffffffffffffffffffffffffff1673ffffffffffffffffffffffffffffffffffffffff1681526020019081526020016000206003015494506000808a73ffffffffffffffffffffffffffffffffffffffff1673ffffffffffffffffffffffffffffffffffffffff1681526020019081526020016000206004015493506000808a73ffffffffffffffffffffffffffffffffffffffff1673ffffffffffffffffffffffffffffffffffffffff1681526020019081526020016000206005015492506000808a73ffffffffffffffffffffffffffffffffffffffff1673ffffffffffffffffffffffffffffffffffffffff16815260200190815260200160002060060160009054906101000a900473ffffffffffffffffffffffffffffffffffffffff1691506000808a73ffffffffffffffffffffffffffffffffffffffff1673ffffffffffffffffffffffffffffffffffffffff168152602001908152602001600020600701549050878787878787878797509750975097509750975097509750919395975091939597565b60003373ffffffffffffffffffffffffffffffffffffffff168273ffffffffffffffffffffffffffffffffffffffff1614610c5257600080fd5b610c5b8261076b565b610c6457600080fd5b60016000808473ffffffffffffffffffffffffffffffffffffffff1673ffffffffffffffffffffffffffffffffffffffff1681526020019081526020016000206000015414610cb257600080fd5b60016000808473ffffffffffffffffffffffffffffffffffffffff1673ffffffffffffffffffffffffffffffffffffffff1681526020019081526020016000206003018190555060008060008473ffffffffffffffffffffffffffffffffffffffff1673ffffffffffffffffffffffffffffffffffffffff16815260200190815260200160002060020154905060008060008573ffffffffffffffffffffffffffffffffffffffff1673ffffffffffffffffffffffffffffffffffffffff168152602001908152602001600020600201819055508273ffffffffffffffffffffffffffffffffffffffff166108fc829081150290604051600060405180830381858888f19350505050158015610dcc573d6000803e3d6000fd5b506001915050919050565b60003373ffffffffffffffffffffffffffffffffffffffff168473ffffffffffffffffffffffffffffffffffffffff1614610e1157600080fd5b610e1a8461076b565b610e2357600080fd5b826000808673ffffffffffffffffffffffffffffffffffffffff1673ffffffffffffffffffffffffffffffffffffffff16815260200190815260200160002060010181905550816000808673ffffffffffffffffffffffffffffffffffffffff1673ffffffffffffffffffffffffffffffffffffffff16815260200190815260200160002060070181905550436000808673ffffffffffffffffffffffffffffffffffffffff1673ffffffffffffffffffffffffffffffffffffffff16815260200190815260200160002060050181905550346000808673ffffffffffffffffffffffffffffffffffffffff1673ffffffffffffffffffffffffffffffffffffffff16815260200190815260200160002060020154016000808673ffffffffffffffffffffffffffffffffffffffff1673ffffffffffffffffffffffffffffffffffffffff16815260200190815260200160002060020181905550600190509392505050565b60006020528060005260406000206000915090508060000154908060010154908060020154908060030154908060040154908060050154908060060160009054906101000a900473ffffffffffffffffffffffffffffffffffffffff16908060070154905088565b6000803390506110008161076b565b1561100a57600080fd5b846000808373ffffffffffffffffffffffffffffffffffffffff1673ffffffffffffffffffffffffffffffffffffffff16815260200190815260200160002060000181905550836000808373ffffffffffffffffffffffffffffffffffffffff1673ffffffffffffffffffffffffffffffffffffffff16815260200190815260200160002060010181905550346000808373ffffffffffffffffffffffffffffffffffffffff1673ffffffffffffffffffffffffffffffffffffffff16815260200190815260200160002060020181905550826000808373ffffffffffffffffffffffffffffffffffffffff1673ffffffffffffffffffffffffffffffffffffffff16815260200190815260200160002060030181905550436000808373ffffffffffffffffffffffffffffffffffffffff1673ffffffffffffffffffffffffffffffffffffffff168152602001908152602001600020600501819055506001808290806001815401808255809150509060018203906000526020600020016000909192909190916101000a81548173ffffffffffffffffffffffffffffffffffffffff021916908373ffffffffffffffffffffffffffffffffffffffff160217905550036000808373ffffffffffffffffffffffffffffffffffffffff1673ffffffffffffffffffffffffffffffffffffffff1681526020019081526020016000206004018190555060018080549050038191509150935093915050565b60006112348261076b565b61123d57600080fd5b60016000808473ffffffffffffffffffffffffffffffffffffffff1673ffffffffffffffffffffffffffffffffffffffff168152602001908152602001600020600001541461128b57600080fd5b436000808473ffffffffffffffffffffffffffffffffffffffff1673ffffffffffffffffffffffffffffffffffffffff168152602001908152602001600020600101546000808573ffffffffffffffffffffffffffffffffffffffff1673ffffffffffffffffffffffffffffffffffffffff1681526020019081526020016000206005015401101561149d5760016000808473ffffffffffffffffffffffffffffffffffffffff1673ffffffffffffffffffffffffffffffffffffffff1681526020019081526020016000206003018190555060008060008473ffffffffffffffffffffffffffffffffffffffff1673ffffffffffffffffffffffffffffffffffffffff16815260200190815260200160002060020154905060008060008573ffffffffffffffffffffffffffffffffffffffff1673ffffffffffffffffffffffffffffffffffffffff168152602001908152602001600020600201819055506000808473ffffffffffffffffffffffffffffffffffffffff1673ffffffffffffffffffffffffffffffffffffffff16815260200190815260200160002060060160009054906101000a900473ffffffffffffffffffffffffffffffffffffffff1673ffffffffffffffffffffffffffffffffffffffff166108fc829081150290604051600060405180830381858888f19350505050158015611492573d6000803e3d6000fd5b5060019150506114a2565b600090505b919050565b60003373ffffffffffffffffffffffffffffffffffffffff168273ffffffffffffffffffffffffffffffffffffffff16146114e157600080fd5b6114ea8261076b565b6114f357600080fd5b60008060008473ffffffffffffffffffffffffffffffffffffffff1673ffffffffffffffffffffffffffffffffffffffff168152602001908152602001600020600001541461154157600080fd5b60016000808473ffffffffffffffffffffffffffffffffffffffff1673ffffffffffffffffffffffffffffffffffffffff168152602001908152602001600020600301819055506001905091905056fea265627a7a72315820cb02a11b91d1002cf228e15c230f69f461c75e4e424bc053cdc50d30b2a9559464736f6c63430005100032",
  "source": "pragma solidity >=0.4.21 <0.7.0;\n\ncontract LivingProof {\n  struct Proof {\n    uint proofType; // type of proof, 0=basic, 1=pinata\n    uint interval; // interval of renewal in number of blocks\n    uint amount; // amount to be released if proofType=1 and status=1\n    uint status; // current status of proof, 0=alive, 1=dead\n    uint index; // index of the proof in the stored data\n    uint updated; // block that the last proof was updated on\n    address payable recipient; // recipient of the amount of a dead pinata proof\n    bytes32 message; // optional message to include with latest proof state\n  }\n\n  mapping(address => Proof) public proofs; // proofs are mapped to the address of the creator\n  address[] public proofIndex;\n\n  // Check to see if a proof exists\n  function isProof(address proofAddress)\n    public\n    view\n    returns(bool)\n  {\n    if(proofIndex.length == 0) return false;\n    return (proofIndex[proofs[proofAddress].index] == proofAddress);\n  }\n\n  // Get the details about an existing proof\n  function getProof(address proofAddress)\n    public\n    view\n    returns(\n      uint proofType,\n      uint interval,\n      uint amount,\n      uint status,\n      uint index,\n      uint updated,\n      address recipient,\n      bytes32 message\n    )\n  {\n    require(isProof(proofAddress));\n    proofType = proofs[proofAddress].proofType;\n    interval = proofs[proofAddress].interval;\n    amount = proofs[proofAddress].amount;\n    status = proofs[proofAddress].status;\n    index = proofs[proofAddress].index;\n    updated = proofs[proofAddress].updated;\n    recipient = proofs[proofAddress].recipient;\n    message = proofs[proofAddress].message;\n    return(\n      proofType,\n      interval,\n      amount,\n      status,\n      index,\n      updated,\n      recipient,\n      message\n    );\n  }\n\n  // Create a new proof\n  function newProof(uint proofType, uint interval, uint status)\n    public\n    payable\n    returns(uint index, address proofAddress)\n  {\n    proofAddress = msg.sender;\n    require(!isProof(proofAddress));\n    proofs[proofAddress].proofType = proofType;\n    proofs[proofAddress].interval = interval;\n    proofs[proofAddress].amount = msg.value;\n    proofs[proofAddress].status = status;\n    proofs[proofAddress].updated = block.number;\n    proofs[proofAddress].index = proofIndex.push(proofAddress)-1;\n    return (proofIndex.length-1, proofAddress);\n  }\n\n  // Kill a basic proof as owner\n  function killProof(address proofToKill)\n    public\n    returns(bool)\n  {\n    require(proofToKill == msg.sender);\n    require(isProof(proofToKill));\n    require(proofs[proofToKill].proofType == 0);\n    proofs[proofToKill].status = 1;\n    return true;\n  }\n\n  // Kill a basic proof as anyone if the interval exceeds last updated block\n  function killProofAnyone(address proofToKill)\n    public\n    returns(bool)\n  {\n    require(isProof(proofToKill));\n    require(proofs[proofToKill].proofType == 0);\n    if (proofs[proofToKill].updated + proofs[proofToKill].interval < block.number) {\n      proofs[proofToKill].status = 1;\n      return true;\n    }\n    return false;\n  }\n\n  // Kill a pinata proof as owner\n  // Returns pinata amount to the owner\n  function killPinata(address payable proofToKill)\n    public\n    returns(bool)\n  {\n    require(proofToKill == msg.sender);\n    require(isProof(proofToKill));\n    require(proofs[proofToKill].proofType == 1);\n    proofs[proofToKill].status = 1;\n    uint amount = proofs[proofToKill].amount;\n    proofs[proofToKill].amount = 0;\n    proofToKill.transfer(amount);\n    return true;\n  }\n\n  // Kill a pinata proof as anyone if the interval exceeds last updated block\n  function killPinataAnyone(address payable proofToKill)\n    public\n    returns(bool)\n  {\n    require(isProof(proofToKill));\n    require(proofs[proofToKill].proofType == 1);\n    if (proofs[proofToKill].updated + proofs[proofToKill].interval < block.number) {\n      proofs[proofToKill].status = 1;\n      uint amount = proofs[proofToKill].amount;\n      proofs[proofToKill].amount = 0;\n      proofs[proofToKill].recipient.transfer(amount);\n      return true;\n    }\n    return false;\n  }\n\n  // Update a basic proof as owner\n  function updateProof(address proofToUpdate, uint interval, bytes32 message)\n    public\n    returns(bool)\n  {\n    require(proofToUpdate == msg.sender);\n    require(isProof(proofToUpdate));\n    proofs[proofToUpdate].interval = interval;\n    proofs[proofToUpdate].message = message;\n    proofs[proofToUpdate].updated = block.number;\n    return true;\n  }\n\n  // Update a pinata proof as owner\n  function updatePinata(address proofToUpdate, uint interval, bytes32 message)\n    public\n    payable\n    returns(bool)\n  {\n    require(proofToUpdate == msg.sender);\n    require(isProof(proofToUpdate));\n    proofs[proofToUpdate].interval = interval;\n    proofs[proofToUpdate].message = message;\n    proofs[proofToUpdate].updated = block.number;\n    proofs[proofToUpdate].amount = proofs[proofToUpdate].amount + msg.value;\n    return true;\n  }\n}\n",
  "sourcePath": "/home/pbxu/ethdenver20/livingproof/contracts/LivingProof.sol",
  "compiler": {
    "name": "solc",
    "version": "0.5.16+commit.9c3226ce.Emscripten.clang"
  },
  "schemaVersion": "3.0.23",
  "updatedAt": "2020-02-15T04:33:45.315Z",
  "devdoc": {
    "methods": {}
  },
  "userdoc": {
    "methods": {}
  }
}